{
  "contractName": "PolyToken",
  "abi": [
    {
      "inputs": [],
      "stateMutability": "nonpayable",
      "type": "constructor"
    },
    {
      "anonymous": false,
      "inputs": [
        {
          "indexed": true,
          "internalType": "address",
          "name": "owner",
          "type": "address"
        },
        {
          "indexed": true,
          "internalType": "address",
          "name": "spender",
          "type": "address"
        },
        {
          "indexed": false,
          "internalType": "uint256",
          "name": "value",
          "type": "uint256"
        }
      ],
      "name": "Approval",
      "type": "event"
    },
    {
      "anonymous": false,
      "inputs": [
        {
          "indexed": true,
          "internalType": "address",
          "name": "from",
          "type": "address"
        },
        {
          "indexed": true,
          "internalType": "address",
          "name": "to",
          "type": "address"
        },
        {
          "indexed": false,
          "internalType": "uint256",
          "name": "value",
          "type": "uint256"
        }
      ],
      "name": "Transfer",
      "type": "event"
    },
    {
      "inputs": [
        {
          "internalType": "address",
          "name": "owner",
          "type": "address"
        },
        {
          "internalType": "address",
          "name": "spender",
          "type": "address"
        }
      ],
      "name": "allowance",
      "outputs": [
        {
          "internalType": "uint256",
          "name": "",
          "type": "uint256"
        }
      ],
      "stateMutability": "view",
      "type": "function",
      "constant": true
    },
    {
      "inputs": [
        {
          "internalType": "address",
          "name": "spender",
          "type": "address"
        },
        {
          "internalType": "uint256",
          "name": "amount",
          "type": "uint256"
        }
      ],
      "name": "approve",
      "outputs": [
        {
          "internalType": "bool",
          "name": "",
          "type": "bool"
        }
      ],
      "stateMutability": "nonpayable",
      "type": "function"
    },
    {
      "inputs": [
        {
          "internalType": "address",
          "name": "account",
          "type": "address"
        }
      ],
      "name": "balanceOf",
      "outputs": [
        {
          "internalType": "uint256",
          "name": "",
          "type": "uint256"
        }
      ],
      "stateMutability": "view",
      "type": "function",
      "constant": true
    },
    {
      "inputs": [],
      "name": "decimals",
      "outputs": [
        {
          "internalType": "uint8",
          "name": "",
          "type": "uint8"
        }
      ],
      "stateMutability": "view",
      "type": "function",
      "constant": true
    },
    {
      "inputs": [
        {
          "internalType": "address",
          "name": "spender",
          "type": "address"
        },
        {
          "internalType": "uint256",
          "name": "subtractedValue",
          "type": "uint256"
        }
      ],
      "name": "decreaseAllowance",
      "outputs": [
        {
          "internalType": "bool",
          "name": "",
          "type": "bool"
        }
      ],
      "stateMutability": "nonpayable",
      "type": "function"
    },
    {
      "inputs": [
        {
          "internalType": "address",
          "name": "spender",
          "type": "address"
        },
        {
          "internalType": "uint256",
          "name": "addedValue",
          "type": "uint256"
        }
      ],
      "name": "increaseAllowance",
      "outputs": [
        {
          "internalType": "bool",
          "name": "",
          "type": "bool"
        }
      ],
      "stateMutability": "nonpayable",
      "type": "function"
    },
    {
      "inputs": [],
      "name": "name",
      "outputs": [
        {
          "internalType": "string",
          "name": "",
          "type": "string"
        }
      ],
      "stateMutability": "view",
      "type": "function",
      "constant": true
    },
    {
      "inputs": [],
      "name": "owner",
      "outputs": [
        {
          "internalType": "address",
          "name": "",
          "type": "address"
        }
      ],
      "stateMutability": "view",
      "type": "function",
      "constant": true
    },
    {
      "inputs": [],
      "name": "symbol",
      "outputs": [
        {
          "internalType": "string",
          "name": "",
          "type": "string"
        }
      ],
      "stateMutability": "view",
      "type": "function",
      "constant": true
    },
    {
      "inputs": [],
      "name": "totalSupply",
      "outputs": [
        {
          "internalType": "uint256",
          "name": "",
          "type": "uint256"
        }
      ],
      "stateMutability": "view",
      "type": "function",
      "constant": true
    },
    {
      "inputs": [
        {
          "internalType": "address",
          "name": "to",
          "type": "address"
        },
        {
          "internalType": "uint256",
          "name": "amount",
          "type": "uint256"
        }
      ],
      "name": "transfer",
      "outputs": [
        {
          "internalType": "bool",
          "name": "",
          "type": "bool"
        }
      ],
      "stateMutability": "nonpayable",
      "type": "function"
    },
    {
      "inputs": [
        {
          "internalType": "address",
          "name": "from",
          "type": "address"
        },
        {
          "internalType": "address",
          "name": "to",
          "type": "address"
        },
        {
          "internalType": "uint256",
          "name": "amount",
          "type": "uint256"
        }
      ],
      "name": "transferFrom",
      "outputs": [
        {
          "internalType": "bool",
          "name": "",
          "type": "bool"
        }
      ],
      "stateMutability": "nonpayable",
      "type": "function"
    },
    {
      "inputs": [
        {
          "internalType": "address",
          "name": "to",
          "type": "address"
        },
        {
          "internalType": "uint256",
          "name": "amount",
          "type": "uint256"
        }
      ],
      "name": "mint",
      "outputs": [],
      "stateMutability": "nonpayable",
      "type": "function"
    }
  ],
  "bytecode": "0x608060405234801562000010575f80fd5b506040518060400160405280600a81526020017f506f6c7920546f6b656e000000000000000000000000000000000000000000008152506040518060400160405280600481526020017f504f4c590000000000000000000000000000000000000000000000000000000081525081600390816200008e9190620004d8565b508060049081620000a09190620004d8565b5050503360055f6101000a81548173ffffffffffffffffffffffffffffffffffffffff021916908373ffffffffffffffffffffffffffffffffffffffff160217905550620000ff3369152d02c7e14af68000006200010560201b60201c565b620006cd565b5f73ffffffffffffffffffffffffffffffffffffffff168273ffffffffffffffffffffffffffffffffffffffff160362000176576040517f08c379a00000000000000000000000000000000000000000000000000000000081526004016200016d906200061a565b60405180910390fd5b620001895f83836200026a60201b60201c565b8060025f8282546200019c919062000667565b92505081905550805f808473ffffffffffffffffffffffffffffffffffffffff1673ffffffffffffffffffffffffffffffffffffffff1681526020019081526020015f205f82825401925050819055508173ffffffffffffffffffffffffffffffffffffffff165f73ffffffffffffffffffffffffffffffffffffffff167fddf252ad1be2c89b69c2b068fc378daa952ba7f163c4a11628f55a4df523b3ef836040516200024b9190620006b2565b60405180910390a3620002665f83836200026f60201b60201c565b5050565b505050565b505050565b5f81519050919050565b7f4e487b71000000000000000000000000000000000000000000000000000000005f52604160045260245ffd5b7f4e487b71000000000000000000000000000000000000000000000000000000005f52602260045260245ffd5b5f6002820490506001821680620002f057607f821691505b602082108103620003065762000305620002ab565b5b50919050565b5f819050815f5260205f209050919050565b5f6020601f8301049050919050565b5f82821b905092915050565b5f600883026200036a7fffffffffffffffffffffffffffffffffffffffffffffffffffffffffffffffff826200032d565b6200037686836200032d565b95508019841693508086168417925050509392505050565b5f819050919050565b5f819050919050565b5f620003c0620003ba620003b4846200038e565b62000397565b6200038e565b9050919050565b5f819050919050565b620003db83620003a0565b620003f3620003ea82620003c7565b84845462000339565b825550505050565b5f90565b62000409620003fb565b62000416818484620003d0565b505050565b5b818110156200043d57620004315f82620003ff565b6001810190506200041c565b5050565b601f8211156200048c5762000456816200030c565b62000461846200031e565b8101602085101562000471578190505b6200048962000480856200031e565b8301826200041b565b50505b505050565b5f82821c905092915050565b5f620004ae5f198460080262000491565b1980831691505092915050565b5f620004c883836200049d565b9150826002028217905092915050565b620004e38262000274565b67ffffffffffffffff811115620004ff57620004fe6200027e565b5b6200050b8254620002d8565b6200051882828562000441565b5f60209050601f8311600181146200054e575f841562000539578287015190505b620005458582620004bb565b865550620005b4565b601f1984166200055e866200030c565b5f5b82811015620005875784890151825560018201915060208501945060208101905062000560565b86831015620005a75784890151620005a3601f8916826200049d565b8355505b6001600288020188555050505b505050505050565b5f82825260208201905092915050565b7f45524332303a206d696e7420746f20746865207a65726f2061646472657373005f82015250565b5f62000602601f83620005bc565b91506200060f82620005cc565b602082019050919050565b5f6020820190508181035f8301526200063381620005f4565b9050919050565b7f4e487b71000000000000000000000000000000000000000000000000000000005f52601160045260245ffd5b5f62000673826200038e565b915062000680836200038e565b92508282019050808211156200069b576200069a6200063a565b5b92915050565b620006ac816200038e565b82525050565b5f602082019050620006c75f830184620006a1565b92915050565b61152b80620006db5f395ff3fe608060405234801561000f575f80fd5b50600436106100cd575f3560e01c806340c10f191161008a57806395d89b411161006457806395d89b4114610225578063a457c2d714610243578063a9059cbb14610273578063dd62ed3e146102a3576100cd565b806340c10f19146101bb57806370a08231146101d75780638da5cb5b14610207576100cd565b806306fdde03146100d1578063095ea7b3146100ef57806318160ddd1461011f57806323b872dd1461013d578063313ce5671461016d578063395093511461018b575b5f80fd5b6100d96102d3565b6040516100e69190610d4d565b60405180910390f35b61010960048036038101906101049190610dfe565b610363565b6040516101169190610e56565b60405180910390f35b610127610385565b6040516101349190610e7e565b60405180910390f35b61015760048036038101906101529190610e97565b61038e565b6040516101649190610e56565b60405180910390f35b6101756103bc565b6040516101829190610f02565b60405180910390f35b6101a560048036038101906101a09190610dfe565b6103c4565b6040516101b29190610e56565b60405180910390f35b6101d560048036038101906101d09190610dfe565b6103fa565b005b6101f160048036038101906101ec9190610f1b565b610497565b6040516101fe9190610e7e565b60405180910390f35b61020f6104dc565b60405161021c9190610f55565b60405180910390f35b61022d610501565b60405161023a9190610d4d565b60405180910390f35b61025d60048036038101906102589190610dfe565b610591565b60405161026a9190610e56565b60405180910390f35b61028d60048036038101906102889190610dfe565b610606565b60405161029a9190610e56565b60405180910390f35b6102bd60048036038101906102b89190610f6e565b610628565b6040516102ca9190610e7e565b60405180910390f35b6060600380546102e290610fd9565b80601f016020809104026020016040519081016040528092919081815260200182805461030e90610fd9565b80156103595780601f1061033057610100808354040283529160200191610359565b820191905f5260205f20905b81548152906001019060200180831161033c57829003601f168201915b5050505050905090565b5f8061036d6106aa565b905061037a8185856106b1565b600191505092915050565b5f600254905090565b5f806103986106aa565b90506103a5858285610874565b6103b08585856108ff565b60019150509392505050565b5f6012905090565b5f806103ce6106aa565b90506103ef8185856103e08589610628565b6103ea9190611036565b6106b1565b600191505092915050565b60055f9054906101000a900473ffffffffffffffffffffffffffffffffffffffff1673ffffffffffffffffffffffffffffffffffffffff163373ffffffffffffffffffffffffffffffffffffffff1614610489576040517f08c379a0000000000000000000000000000000000000000000000000000000008152600401610480906110b3565b60405180910390fd5b6104938282610b6b565b5050565b5f805f8373ffffffffffffffffffffffffffffffffffffffff1673ffffffffffffffffffffffffffffffffffffffff1681526020019081526020015f20549050919050565b60055f9054906101000a900473ffffffffffffffffffffffffffffffffffffffff1681565b60606004805461051090610fd9565b80601f016020809104026020016040519081016040528092919081815260200182805461053c90610fd9565b80156105875780601f1061055e57610100808354040283529160200191610587565b820191905f5260205f20905b81548152906001019060200180831161056a57829003601f168201915b5050505050905090565b5f8061059b6106aa565b90505f6105a88286610628565b9050838110156105ed576040517f08c379a00000000000000000000000000000000000000000000000000000000081526004016105e490611141565b60405180910390fd5b6105fa82868684036106b1565b60019250505092915050565b5f806106106106aa565b905061061d8185856108ff565b600191505092915050565b5f60015f8473ffffffffffffffffffffffffffffffffffffffff1673ffffffffffffffffffffffffffffffffffffffff1681526020019081526020015f205f8373ffffffffffffffffffffffffffffffffffffffff1673ffffffffffffffffffffffffffffffffffffffff1681526020019081526020015f2054905092915050565b5f33905090565b5f73ffffffffffffffffffffffffffffffffffffffff168373ffffffffffffffffffffffffffffffffffffffff160361071f576040517f08c379a0000000000000000000000000000000000000000000000000000000008152600401610716906111cf565b60405180910390fd5b5f73ffffffffffffffffffffffffffffffffffffffff168273ffffffffffffffffffffffffffffffffffffffff160361078d576040517f08c379a00000000000000000000000000000000000000000000000000000000081526004016107849061125d565b60405180910390fd5b8060015f8573ffffffffffffffffffffffffffffffffffffffff1673ffffffffffffffffffffffffffffffffffffffff1681526020019081526020015f205f8473ffffffffffffffffffffffffffffffffffffffff1673ffffffffffffffffffffffffffffffffffffffff1681526020019081526020015f20819055508173ffffffffffffffffffffffffffffffffffffffff168373ffffffffffffffffffffffffffffffffffffffff167f8c5be1e5ebec7d5bd14f71427d1e84f3dd0314c0f7b2291e5b200ac8c7c3b925836040516108679190610e7e565b60405180910390a3505050565b5f61087f8484610628565b90507fffffffffffffffffffffffffffffffffffffffffffffffffffffffffffffffff81146108f957818110156108eb576040517f08c379a00000000000000000000000000000000000000000000000000000000081526004016108e2906112c5565b60405180910390fd5b6108f884848484036106b1565b5b50505050565b5f73ffffffffffffffffffffffffffffffffffffffff168373ffffffffffffffffffffffffffffffffffffffff160361096d576040517f08c379a000000000000000000000000000000000000000000000000000000000815260040161096490611353565b60405180910390fd5b5f73ffffffffffffffffffffffffffffffffffffffff168273ffffffffffffffffffffffffffffffffffffffff16036109db576040517f08c379a00000000000000000000000000000000000000000000000000000000081526004016109d2906113e1565b60405180910390fd5b6109e6838383610cb9565b5f805f8573ffffffffffffffffffffffffffffffffffffffff1673ffffffffffffffffffffffffffffffffffffffff1681526020019081526020015f2054905081811015610a69576040517f08c379a0000000000000000000000000000000000000000000000000000000008152600401610a609061146f565b60405180910390fd5b8181035f808673ffffffffffffffffffffffffffffffffffffffff1673ffffffffffffffffffffffffffffffffffffffff1681526020019081526020015f2081905550815f808573ffffffffffffffffffffffffffffffffffffffff1673ffffffffffffffffffffffffffffffffffffffff1681526020019081526020015f205f82825401925050819055508273ffffffffffffffffffffffffffffffffffffffff168473ffffffffffffffffffffffffffffffffffffffff167fddf252ad1be2c89b69c2b068fc378daa952ba7f163c4a11628f55a4df523b3ef84604051610b529190610e7e565b60405180910390a3610b65848484610cbe565b50505050565b5f73ffffffffffffffffffffffffffffffffffffffff168273ffffffffffffffffffffffffffffffffffffffff1603610bd9576040517f08c379a0000000000000000000000000000000000000000000000000000000008152600401610bd0906114d7565b60405180910390fd5b610be45f8383610cb9565b8060025f828254610bf59190611036565b92505081905550805f808473ffffffffffffffffffffffffffffffffffffffff1673ffffffffffffffffffffffffffffffffffffffff1681526020019081526020015f205f82825401925050819055508173ffffffffffffffffffffffffffffffffffffffff165f73ffffffffffffffffffffffffffffffffffffffff167fddf252ad1be2c89b69c2b068fc378daa952ba7f163c4a11628f55a4df523b3ef83604051610ca29190610e7e565b60405180910390a3610cb55f8383610cbe565b5050565b505050565b505050565b5f81519050919050565b5f82825260208201905092915050565b5f5b83811015610cfa578082015181840152602081019050610cdf565b5f8484015250505050565b5f601f19601f8301169050919050565b5f610d1f82610cc3565b610d298185610ccd565b9350610d39818560208601610cdd565b610d4281610d05565b840191505092915050565b5f6020820190508181035f830152610d658184610d15565b905092915050565b5f80fd5b5f73ffffffffffffffffffffffffffffffffffffffff82169050919050565b5f610d9a82610d71565b9050919050565b610daa81610d90565b8114610db4575f80fd5b50565b5f81359050610dc581610da1565b92915050565b5f819050919050565b610ddd81610dcb565b8114610de7575f80fd5b50565b5f81359050610df881610dd4565b92915050565b5f8060408385031215610e1457610e13610d6d565b5b5f610e2185828601610db7565b9250506020610e3285828601610dea565b9150509250929050565b5f8115159050919050565b610e5081610e3c565b82525050565b5f602082019050610e695f830184610e47565b92915050565b610e7881610dcb565b82525050565b5f602082019050610e915f830184610e6f565b92915050565b5f805f60608486031215610eae57610ead610d6d565b5b5f610ebb86828701610db7565b9350506020610ecc86828701610db7565b9250506040610edd86828701610dea565b9150509250925092565b5f60ff82169050919050565b610efc81610ee7565b82525050565b5f602082019050610f155f830184610ef3565b92915050565b5f60208284031215610f3057610f2f610d6d565b5b5f610f3d84828501610db7565b91505092915050565b610f4f81610d90565b82525050565b5f602082019050610f685f830184610f46565b92915050565b5f8060408385031215610f8457610f83610d6d565b5b5f610f9185828601610db7565b9250506020610fa285828601610db7565b9150509250929050565b7f4e487b71000000000000000000000000000000000000000000000000000000005f52602260045260245ffd5b5f6002820490506001821680610ff057607f821691505b60208210810361100357611002610fac565b5b50919050565b7f4e487b71000000000000000000000000000000000000000000000000000000005f52601160045260245ffd5b5f61104082610dcb565b915061104b83610dcb565b925082820190508082111561106357611062611009565b5b92915050565b7f4f6e6c79206f776e65722063616e206d696e74000000000000000000000000005f82015250565b5f61109d601383610ccd565b91506110a882611069565b602082019050919050565b5f6020820190508181035f8301526110ca81611091565b9050919050565b7f45524332303a2064656372656173656420616c6c6f77616e63652062656c6f775f8201527f207a65726f000000000000000000000000000000000000000000000000000000602082015250565b5f61112b602583610ccd565b9150611136826110d1565b604082019050919050565b5f6020820190508181035f8301526111588161111f565b9050919050565b7f45524332303a20617070726f76652066726f6d20746865207a65726f206164645f8201527f7265737300000000000000000000000000000000000000000000000000000000602082015250565b5f6111b9602483610ccd565b91506111c48261115f565b604082019050919050565b5f6020820190508181035f8301526111e6816111ad565b9050919050565b7f45524332303a20617070726f766520746f20746865207a65726f2061646472655f8201527f7373000000000000000000000000000000000000000000000000000000000000602082015250565b5f611247602283610ccd565b9150611252826111ed565b604082019050919050565b5f6020820190508181035f8301526112748161123b565b9050919050565b7f45524332303a20696e73756666696369656e7420616c6c6f77616e63650000005f82015250565b5f6112af601d83610ccd565b91506112ba8261127b565b602082019050919050565b5f6020820190508181035f8301526112dc816112a3565b9050919050565b7f45524332303a207472616e736665722066726f6d20746865207a65726f2061645f8201527f6472657373000000000000000000000000000000000000000000000000000000602082015250565b5f61133d602583610ccd565b9150611348826112e3565b604082019050919050565b5f6020820190508181035f83015261136a81611331565b9050919050565b7f45524332303a207472616e7366657220746f20746865207a65726f20616464725f8201527f6573730000000000000000000000000000000000000000000000000000000000602082015250565b5f6113cb602383610ccd565b91506113d682611371565b604082019050919050565b5f6020820190508181035f8301526113f8816113bf565b9050919050565b7f45524332303a207472616e7366657220616d6f756e74206578636565647320625f8201527f616c616e63650000000000000000000000000000000000000000000000000000602082015250565b5f611459602683610ccd565b9150611464826113ff565b604082019050919050565b5f6020820190508181035f8301526114868161144d565b9050919050565b7f45524332303a206d696e7420746f20746865207a65726f2061646472657373005f82015250565b5f6114c1601f83610ccd565b91506114cc8261148d565b602082019050919050565b5f6020820190508181035f8301526114ee816114b5565b905091905056fea2646970667358221220fe531257f3a83d95fb4cad458b2c6bc1b866300d3a2597ccd0bbb48190a76c8864736f6c63430008160033",
  "immutableReferences": {},
  "source": "// SPDX-License-Identifier: GPL-3.0\npragma solidity ^0.8.6;\nimport \"@openzeppelin/contracts/token/ERC20/ERC20.sol\";\n\ncontract PolyToken is ERC20 {\n    address public owner;\n\n    constructor() ERC20(\"Poly Token\", \"POLY\") {\n        owner = msg.sender;\n        _mint(msg.sender, 100000 * 10**18);\n    }\n\n    function mint(address to, uint256 amount) external {\n        require(msg.sender == owner, \"Only owner can mint\");\n        _mint(to, amount);\n    }\n}\n",
  "sourcePath": "/home/void/Documents/Polymarket-clone/contracts/PolyToken.sol",
  "compiler": {
    "name": "solc",
    "version": "0.8.22+commit.4fc1097e.Emscripten.clang"
  },
  "schemaVersion": "3.4.16",
  "updatedAt": "2023-11-08T11:08:38.786Z",
  "networkType": "ethereum",
  "devdoc": {
    "events": {
      "Approval(address,address,uint256)": {
        "details": "Emitted when the allowance of a `spender` for an `owner` is set by a call to {approve}. `value` is the new allowance."
      },
      "Transfer(address,address,uint256)": {
        "details": "Emitted when `value` tokens are moved from one account (`from`) to another (`to`). Note that `value` may be zero."
      }
    },
    "kind": "dev",
    "methods": {
      "allowance(address,address)": {
        "details": "See {IERC20-allowance}."
      },
      "approve(address,uint256)": {
        "details": "See {IERC20-approve}. NOTE: If `amount` is the maximum `uint256`, the allowance is not updated on `transferFrom`. This is semantically equivalent to an infinite approval. Requirements: - `spender` cannot be the zero address."
      },
      "balanceOf(address)": {
        "details": "See {IERC20-balanceOf}."
      },
      "decimals()": {
        "details": "Returns the number of decimals used to get its user representation. For example, if `decimals` equals `2`, a balance of `505` tokens should be displayed to a user as `5.05` (`505 / 10 ** 2`). Tokens usually opt for a value of 18, imitating the relationship between Ether and Wei. This is the default value returned by this function, unless it's overridden. NOTE: This information is only used for _display_ purposes: it in no way affects any of the arithmetic of the contract, including {IERC20-balanceOf} and {IERC20-transfer}."
      },
      "decreaseAllowance(address,uint256)": {
        "details": "Atomically decreases the allowance granted to `spender` by the caller. This is an alternative to {approve} that can be used as a mitigation for problems described in {IERC20-approve}. Emits an {Approval} event indicating the updated allowance. Requirements: - `spender` cannot be the zero address. - `spender` must have allowance for the caller of at least `subtractedValue`."
      },
      "increaseAllowance(address,uint256)": {
        "details": "Atomically increases the allowance granted to `spender` by the caller. This is an alternative to {approve} that can be used as a mitigation for problems described in {IERC20-approve}. Emits an {Approval} event indicating the updated allowance. Requirements: - `spender` cannot be the zero address."
      },
      "name()": {
        "details": "Returns the name of the token."
      },
      "symbol()": {
        "details": "Returns the symbol of the token, usually a shorter version of the name."
      },
      "totalSupply()": {
        "details": "See {IERC20-totalSupply}."
      },
      "transfer(address,uint256)": {
        "details": "See {IERC20-transfer}. Requirements: - `to` cannot be the zero address. - the caller must have a balance of at least `amount`."
      },
      "transferFrom(address,address,uint256)": {
        "details": "See {IERC20-transferFrom}. Emits an {Approval} event indicating the updated allowance. This is not required by the EIP. See the note at the beginning of {ERC20}. NOTE: Does not update the allowance if the current allowance is the maximum `uint256`. Requirements: - `from` and `to` cannot be the zero address. - `from` must have a balance of at least `amount`. - the caller must have allowance for ``from``'s tokens of at least `amount`."
      }
    },
    "version": 1
  },
  "userdoc": {
    "kind": "user",
    "methods": {},
    "version": 1
  }
}